:020000040000FA
:0400000020EF08F0F5
:08000800056ED8CF06F0E0CF31
:1000100007F00001E9CF0DF0EACF08F0E1CF09F0D9
:10002000E2CF0AF0D9CF0BF0DACF0CF0F3CF14F017
:10003000F4CF15F0FACF16F000C00FF001C010F0A9
:1000400002C011F003C012F004C013F0A0AA2CEFFC
:1000500000F0A1BA86EF05F00FC000F010C001F06B
:1000600011C002F012C003F013C004F00E8E0DC0D8
:10007000E9FF08C0EAFF09C0E1FF0AC0E2FF0BC0C8
:10008000D9FF0CC0DAFF14C0F3FF15C0F4FF16C08F
:10009000FAFF055007C0E0FF06C0D8FF1000F76A5E
:1000A000AE0FF66E000EF7220900F55012000401A3
:1000B0000000000000000000000000000000F76ADF
:1000C000CE0FF66E000EF7220900F5501200400028
:1000D000040000000000000000000000000000001C
:1000E00000000000000000000000000000000DAE55
:1000F00003D0F2CF0EF0F29EF76A100FF66E010EEB
:10010000F7220900F5500DAE02D00EBEF28E12009D
:100110004000080000000000000000000000000097
:1001200000000000000000000000000000000000CF
:10013000F76A400FF66E010EF7220900F550120023
:1001400009022000010100C0320904000002FFFF83
:10015000FF000705810204000107050102080001F4
:10016000F76A700FF66E010EF7220900F5501200C3
:100170000100F76A820FF66E010EF7220900F550B2
:1001800012001201100100000040D804110001000B
:1001900001020001F76AA40FF66E010EF7220900B2
:1001A000F550120000040C00F76AB80FF66E010E4D
:1001B000F7220900F55012000403090408034A005D
:1001C00031004D0016034A0031004D002000500060
:1001D000690063005500530042006D926994689471
:1001E00091EF05F06A6A68929AEF05F0826B82538C
:1001F0000AE1036A8251240FE96E000E0320EA6EC1
:10020000EF6A822BF4D71A6A010E1B6E196A000C72
:10021000010E8B6F8B510F080EE3700E8B25016E54
:100220000F0E036ED8B0032A01C0E9FF03C0EAFF36
:10023000EF6A8B2BEFD71E6A1D6A000C400E04017B
:10024000016F050E036F026B880E006F046B050EC5
:10025000076F400E066F0001000C6A6A686A9F0E05
:100260006B6E390E696E6E6AC1DFD2DF160E706E6C
:1002700068A602D06896FCD76D98E0DF030E1F6E6B
:10028000A0EF05F0698468986D82A6EF05F0689C80
:10029000ACEF05F070A002D0D1DF7090689AB2EF99
:1002A00005F086C020F0000CFF0E206E000C846B61
:1002B000235235E084513F0832E31C5005E0020A26
:1002C0000DE0010A15E01ED0036A2250F2CF86F03D
:1002D000F29E2EDF86BFF28E856F14D0036A225005
:1002E000F2CF86F0F29E60DF86BFF28E856F0AD075
:1002F000036A2250F2CF86F0F29E3BDF86BFF28E79
:10030000856F00D0222A23068451842B036A400F74
:10031000E96E050E0320EA6E85C0EFFFC9D72352B0
:1003200004E18451400801E0196A84C086F0B9DF15
:10033000000C226A1C6A05010351010A000105E054
:10034000030A08E0010A09E01FD0120E236E030E13
:100350001C6E1CD0200E236E19D0020E1C6E036A78
:1003600005010251F2CF83F0F29E000113DF83BF3B
:10037000F28E226E036A2250F2CF83F0F29E14DFD7
:1003800083BFF28E236E02D08FDF0CD0050107539E
:1003900005E12350065D02E206C523F0010E196E49
:1003A000000185DFECEF02F0835304E1040E1F6EC1
:1003B0002FDFC1D0050E1F6E866F800E856F010E78
:1003C000846F84510F08D8A0B6D0876B036A84511C
:1003D000F2CF8BF0F29E63DE8BBFF28E000A51E00B
:1003E000040E876FD8908435036AF2CF8BF0F29EAB
:1003F0007EDE0900F5CF03F08BBFF28E886F03C05D
:1004000089F08451080DF350010F016E040E036E44
:10041000D8B0032A01C0E9FF03C0EAFF88C0EFFF9C
:100420008451080DF350020F016E040E036ED8B014
:10043000032A01C0E9FF03C0EAFF86C0ECFFED52CA
:1004400085C0EFFFD8908435036AF2CF8BF0F29E1F
:100450004EDE0900F5CF03F08BBFF28E85270350E7
:100460008623880E8A6F89B18A8189B38A838451F1
:10047000080DF3CF01F0040E01C0E9FFEA6E8AC057
:10048000EFFF036A8451F2CF8BF0F29E08DE8BBF40
:10049000F28E000A31E087838451080DF350060F75
:1004A000016E040E036ED8B0032A01C0E9FF03C039
:1004B000EAFF86C0ECFFED5285C0EFFFD89084358F
:1004C000036AF2CF8BF0F29EFADD0900F5CF03F05C
:1004D0008BBFF28E8527035086238451080DF3507D
:1004E000040F016E040E036ED8B0032A01C0E9FFA9
:1004F00003C0EAFF400EEF6E8751060802E10E0EC0
:10050000876F036A8451F2CF8BF0F29EC8DD8BBFF8
:10051000F28E020801E08789700E8425016E0F0EAD
:10052000036ED8B0032A01C0E9FF03C0EAFF87C009
:10053000EFFF842B46D7E6EF02F0050101510001E1
:100540000DE0010A14E0020A1EE0060A27E0030A91
:100550002CE00E0A2BE0010A2FE03CD01BC040F536
:100560000501416B020E0001866F9BDE35D005014F
:10057000022D06D0010E1B160001866B92DE02D002
:10058000000192DE29D00501022D05D01B82000159
:10059000866B87DE02D0000187DE1ED0020E196E48
:1005A00002C521F0866B7DDE17D0C3D61AC040F598
:1005B000010E866F76DE10D005010251010808E3B6
:1005C00002C51AF002C583F00001EED6866B69DE23
:1005D000000102D069DE00D00DEF04F01AC083F0F4
:1005E00005010151000105E00A0A0BE0010A2BE0B8
:1005F0003CD00501406B416B020E0001866F51DE5D
:1006000036D083531EE0010E835D036AF2CF85F07E
:10061000F29EA6DD85BFF28E016E0501045DD8A0B5
:1006200002D000010ED0036A0451240FE96E000EBF
:100630000320EA6EEFCF40F5010E0001866F31DE38
:1006400001D032DE14D083530EE0036A0501045159
:10065000240FE96E000E0320EA6E02C5EFFF0001D1
:10066000866B1FDE01D020DE02D01EDE00D00DEF33
:1006700004F0849183BF8481839F84A110D0036A96
:100680008351F2CF85F0F29E0ADD85BFF28E000A1B
:1006900002E1000E01D0010E016E10D00FD0036AEE
:1006A0008351F2CF85F0F29EFADC85BFF28E000A0C
:1006B00002E1000E01D0010E016E00D0D0EF03F078
:1006C000849183BF8481839F84A110D08351080DBE
:1006D000F350040F016E040E036ED8B0032A01C05C
:1006E000E9FF03C0EAFF880EEF6E09D08351080DC1
:1006F000F3CF01F0040E01C0E9FFEA6EEF6ADFEF0D
:1007000003F0849183BF8481839F84A110D083519F
:10071000080DF350040F016E040E036ED8B0032AC7
:1007200001C0E9FF03C0EAFF840EEF6E0AD08351D7
:10073000080DF3CF01F0040E01C0E9FFEA6E840E4C
:10074000EF6EE5EF03F0849183BF8481839F84A1E2
:1007500010D08351080DF350040F016E040E036E88
:10076000D8B0032A01C0E9FF03C0EAFFEFCF85F04C
:100770000AD08351080DF3CF01F0040E01C0E9FF48
:10078000EA6EEFCF85F085AF02D085B502D0000EBE
:1007900001D0010E016EEFEF03F004C583F069D7BD
:1007A000015229E005010151010A000105E0020A98
:1007B00009E0030A0DE01DD004C583F081D7866BE4
:1007C00070DD19D004C583F09CD7866B6ADD13D029
:1007D0000501406B416B04C583F00001B4D70152A1
:1007E00004E0010E0501406F0001020E866F59DD25
:1007F00002D05ADD00D00DEF04F0196A0501005156
:100800007F0B000105E0010A04E0030A03E003D0C6
:1008100094D6E4D6C2D748DD00D031EF05F083513D
:10082000080DF3CF01F0040E01C0E9FFEA6EEFCF2F
:1008300085F08451020806E185AD02D0846B02D0B8
:10084000010E846F8451030812E1840E856F835179
:10085000080DF350040F016E040E036ED8B0032A86
:1008600001C0E9FF03C0EAFF840EEF6E09D0842DBA
:1008700003D0C80E856F04D0845302E1880E856FC3
:10088000036A010E026E8351006E05E0D8900236B5
:100890000336002EFBD70250FF0A006EFF0E031A2C
:1008A00000501D1603501E16D8908335036AF2CFF0
:1008B00088F0F29E1CDC0900F5CF03F088BFF28EB1
:1008C000866F03C087F08351080DF350010F016E4E
:1008D000040E036ED8B0032A01C0E9FF03C0EAFF8B
:1008E00086C0EFFF87B1858187B385838351080D6B
:1008F000F3CF01F0040E01C0E9FFEA6E85C0EFFFFF
:10090000000C8351080DF350040F016E040E036EAA
:10091000D8B0032A01C0E9FF03C0EAFFEFCF87F098
:1009200087BF5BD08351080DF350050F016E040E95
:10093000036ED8B0032A01C0E9FF03C0EAFF84C0F8
:10094000EFFF8651020816E18351080DF350040FA2
:10095000016E040E036ED8B0032A01C0E9FF03C084
:10096000EAFFEFCF87F087AD02D0866B02D0010E91
:10097000866F13D08651040810E18351080DF3CF20
:1009800001F0040E01C0E9FFEA6EEFCF87F087ADFA
:1009900003D0010E866F01D0866B862D03D0C80E62
:1009A000876F04D0865302E1880E876F85B18781F7
:1009B00085B387838351080DF350040F016E040E35
:1009C000036ED8B0032A01C0E9FF03C0EAFF87C065
:1009D000EFFF010E016E03D000D0000E016E000C7F
:1009E000835302E12BDC0FD0036A010E026E8351A8
:1009F000006E05E0D89002360336002EFBD7025079
:100A00001D1203501E12000C84C06EFF845303E0BD
:100A1000040E1F6E02D0020E1F6E14EF05F01A6A4C
:100A2000196A21C084F0F0D720EF05F0835308E164
:100A3000192C02D03CDC04D01950020801E1EFD798
:100A4000000C6C30826F823382331F0E82176C521F
:100A50003BE1040100513C0B34081BE1046B000135
:100A6000CCD6203C05D0836B030E846FD8DE0ED02D
:100A7000836B020E846FD3DE2050FE0807E0836B89
:100A8000856B20C084F0040E866F3BDF6D9819D013
:100A9000040100513C0B040815E10001836BA0DF49
:100AA000836B020E846FBBDE2050FE080AE0203C00
:100AB00001D007D0836B856B20C084F0010E866F58
:100AC00020DF040120D000016C50040812E1FF0E69
:100AD000206E836BABDF203C01D008D0836B856B2D
:100AE00020C084F0020E866F0CDF02D01EEC01F0F5
:100AF00009D06CB404D082C083F072DF03D082C00E
:100B000083F094DF04010001B7EF05F01F5201E10B
:100B10002FD068522DE068A404D069A402D0EDEF74
:100B200000F06DA201D024D068A204D069A202D046
:100B3000F2EF00F068A004D069A002D02DEF01F020
:100B400068A804D069A802D042EF01F068AC04D0D4
:100B500069AC02D047EF01F068AA04D069AA02D0BC
:100B60004AEF01F068A604D069A602D06AD7689659
:100B7000A19A2CEF00F06D6A696A080E6F6E9450AE
:100B80003009946E1F6A186AF2BE188EF29EF6EC57
:100B900000F018BEF28E1E6A1D6AF2EF05F0186AA8
:100BA000F2BE188EF29EF6EC00F018BEF28E6D6A60
:100BB000140E6F6E696A6D86010E1F6EE3EF05F00D
:100BC0006DB601D0ECD71F2C0BD06DBA09D0686A76
:100BD000696AA08AC00EF212110E696E020E1F6EB3
:100BE000000CC9D7EDDF1F500208FCE191EF08F0BF
:100BF0001A5202E10400FCD79CEF08F07C51070B6D
:100C0000006E7C31016E013201321F0E011601505F
:100C10007E25E96E000E7F21EA6E016A012A002A14
:100C200001D00136002EFDD77D5303E00150EF12B5
:100C300003D0011E0150EF16000C776B77510308AB
:100C40004FE3036A77517125E96E72510320EA6E12
:100C5000EF5223E17751040DF350036A7525E96ED5
:100C600076510320EA6EEFCF78F0ECCF79F0ECCF3D
:100C70007AF0ECCF7BF078C07CF0010E7D6F0F0E28
:100C80007F6F890E7E6FBADF78C07CF07D6B0F0EB0
:100C90007F6F920E7E6FB2DF21D07751040DF3503B
:100CA000036A7525E96E76510320EA6EEFCF78F07E
:100CB000ECCF79F0ECCF7AF0ECCF7BF078C07CF021
:100CC0007D6B0F0E7F6F890E7E6F98DF78C07CF092
:100CD0007D6B0F0E7F6F920E7E6F90DF772BAED7FE
:100CE000000C6E51520A05E01E0A27E01F0A49E077
:100CF0004DD045500C0806E1706B310E6F6F090E38
:100D0000456E1AD04550060806E1706B250E6F6FD0
:100D10000C0E456E11D04550030806E1706B290E8C
:100D20006F6F060E456E08D04550090805E1706BDF
:100D30002D0E6F6F030E456E29D045500C0806E14D
:100D4000706B290E6F6F060E456E1AD0455006085F
:100D500006E1706B2D0E6F6F030E456E11D045507E
:100D6000030806E1706B310E6F6F090E456E08D0F7
:100D70004550090805E1706B250E6F6F0C0E456E2E
:100D800005D0706B310E6F6F090E456E6FC071F03C
:100D9000766B350E756F51DF000C6E51460A05E01B
:100DA000040A29E0110A4DE051D0565203E0565092
:100DB000090806E1706B2D0E6F6F030E566E1AD088
:100DC0005650030806E1706B290E6F6F060E566EC3
:100DD00011D05650060806E1706B250E6F6F0C0E91
:100DE000566E08D056500C0805E1706B310E6F6FCF
:100DF000090E566E2BD0565203E05650090806E1F4
:100E0000706B250E6F6F0C0E566E1AD0565003087D
:100E100006E1706B310E6F6F090E566E11D0565091
:100E2000060806E1706B2D0E6F6F030E566E08D02C
:100E300056500C0805E1706B290E6F6F060E566E4A
:100E400005D0706B310E6F6F090E456E6FC071F07B
:100E5000766B460E756FF1DE000C7351080DF35082
:100E6000020F016E040E036ED8B0032A01C0E9FF21
:100E700003C0EAFFECCF03F0ED52EFCF78F003C0F0
:100E800079F07351080DF350010F016E040E036EDB
:100E9000D8B0032A01C0E9FF03C0EAFFEF50036A9C
:100EA0007B6F03C07CF07351080DF3CF01F0040E8B
:100EB00001C0E9FFEA6EEFCF7AF07AB17C817AB3B4
:100EC0007C837C51775D08E303E176517B5D04E22E
:100ED0007CC077F07BC076F07C6B7B6B7C51775D60
:100EE0001AE303E176517B5D16E278C0E9FF79C031
:100EF000EAFFEFCF7FF075C0EAFF74C0E9FF7FC063
:100F0000EFFF742BD8B4752B782BD8B4792B7B2BAF
:100F1000D8B47C2BE3D776C001F077C002F09CEF09
:100F200007F06EC073F070C075F06FC074F072C0DF
:100F300077F071C076F091D702C072F001C071F005
:100F4000186AF2BE188EF29E6EC083F0020E846F95
:100F500066DC18BEF28E71C001F072C002F0B7EF0D
:100F600008F0EA6A6E0EE96EEF500EE00F0E016EA9
:100F7000006A002EFED7012EFBD78F0E006E002ECA
:100F8000FED70000EF2EF2D7DAEF08F06E51080D11
:100F9000F350040F016E040E036ED8B0032A01C093
:100FA000E9FF03C0EAFFEFCF76F076BF45D06E5180
:100FB000080DF350060F016E040E036ED8B0032A1D
:100FC00001C0E9FF03C0EAFFECCF03F0ED52EFCF21
:100FD00077F003C078F0756B746B7551725D1AE32E
:100FE00003E17151745D16E26FC0E9FF70C0EAFF62
:100FF000EFCF7BF078C0EAFF77C0E9FF7BC0EFFF5F
:10100000772BD8B4782B6F2BD8B4702B742BD8B423
:10101000752BE3D7186AF2BE188EF29E6EC083F06D
:1010200072C085F071C084F073C086F06ADC18BEAF
:10103000F28E015003D000D0000E016EE9EF08F0EF
:10104000F86AD09E0D8EEA6AE96AC150C00B0F099A
:10105000C16E070EB46E1F6A236A010E256E266EDE
:10106000276A286A296A2A6E2B6E2C6A2D6A2E6AD4
:101070002F6E306E316E326A336A346E1C0E356EEE
:101080007C0E366E376A386A1D0E396E7C0E3A6EEB
:101090003B6A3C6A1E0E3D6E7C0E3E6E3F6A406AA5
:1010A0001F0E416E7C0E426E436A446A090E456E05
:1010B000080E466E7C0E476E486A496A090E4A6EF3
:1010C0007C0E4B6E4C6A4D6A0A0E4E6E7C0E4F6E55
:1010D000506A516A0B0E526E7C0E536E546A556AFA
:1010E000090E566E0C0E576E7C0E586E596A5A6A6F
:1010F0000D0E5B6E7C0E5C6E5D6A5E6A0E0E5F6E40
:101100007C0E606F616B626B0F0E636F7C0E646FA1
:10111000656B666B090E676F95908C9095928C82CB
:1011200060D5C150C00B0E09C16EC080C082C084A2
:10113000C08EC28045DD5CD595928C9295908C8056
:10114000530E6E6FCEDD530E6E6F27DE1A5243E0E4
:1011500096908D801DA23FD095948C84010E6E6F69
:10116000706B680E6F6F726B050E716FDAD6682D3B
:1011700021D0692D05D06A2D03D0520E6E6FB1DDDE
:101180006951020805E16A2D03D04C0E6E6FA9DD8E
:101190006B2D05D06C2D03D0460E6E6FFEDD6B51AE
:1011A000020805E16C2D03D0420E6E6FF6DD140EC1
:1011B0006E6FD7D6685104080CE1010E6D6F6E6F2B
:1011C000706B6D0E6F6F726B010E716F020E736F2D
:0A11D000DDD695948C94BAD7030085
:020000040030CA
:0E000000220E3E1E008381000FC00FE00F4055
:00000001FF
;PIC18F4550
